:020000040800F2
:1000000020180020A10100082D7B00080B760008B5
:10001000297B00089519000865970008000000007A
:1000200000000000000000000000000059890008E6
:10003000BF2A00080000000069850008558A0008F2
:10004000BB010008BB010008BB010008BB010008A0
:10005000BB010008BB010008BB010008BB01000890
:10006000BB010008BB010008BB010008BB01000880
:1000700085290008BB010008BB010008BB0100087E
:1000800095290008BB010008BB010008BB0100085E
:1000900099190008BB010008BB010008BB0100085A
:1000A000BB010008BB010008BB010008BB01000840
:1000B000BB010008BB010008BB010008BB01000830
:1000C000BB010008BB010008BB010008BB01000820
:1000D000BB010008F99600081D9700084197000829
:1000E000BB010008BB010008BB010008BB01000800
:1000F000BB010008BB010008BB010008BB010008F0
:10010000BB010008BB010008BB0100085D870008B7
:10011000BB010008BB010008258B0008358B0008D7
:10012000BB010008BB010008A5290008BB010008AD
:10013000BB010008BB010008BB010008BB010008AF
:10014000BB010008A9190008BB010008BB01000899
:10015000BB010008BB010008BB010008BB0100088F
:10016000BB010008BB010008BB010008BB0100087F
:10017000BB010008BB010008BB0100080000000033
:10018000BB010008BB010008DFF810D000F0B4FA92
:10019000004800473DA90008AFF300802018002068
:1001A0000648804706480047FEE7FEE7FEE7FEE711
:1001B000FEE7FEE7FEE7FEE7FEE7FEE7118B00083D
:1001C000890100082DE9F05F0546002092469B4614
:1001D00088460646814640241BE02846414647465D
:1001E000224600F0D2F953465A46C01A914110D324
:1001F00011461846224600F0B9F92D1A67EB01089E
:100200004F4622460120002100F0B0F917EB00090B
:100210004E41201EA4F10104DFDC484631462A4647
:100220004346BDE8F09F40EA01039B0703D009E085
:1002300008C9121F08C0042AFAD203E011F8013BD2
:1002400000F8013B521EF9D27047D2B201E000F82B
:10025000012B491EFBD270470022F6E710B513466A
:100260000A4604461946FFF7F0FF204610BD2DE967
:10027000FE4F804681EA0300C00F0C46009021F03B
:10028000004123F00045B8EB0200A94105D24046E9
:10029000214690461C460B46024623F00040104380
:1002A00047D0270DC7F30A00C3F30A510290401A42
:1002B000019040286BDAC3F3130040F4801B0098D0
:1002C000924620B10023D2EB030A63EB0B0B01989B
:1002D0005946C0F14002504600F048F906460D4626
:1002E00050465946019A00F060F910EB0800614150
:1002F000002487EA115284EAE7731A4340D0009A37
:1003000062B3019A012A4FEA075215DC001B61EB28
:1003100002014FF0004202EA0752CDE90042001C00
:1003200041F5801132462B4600F097F903B0BDE845
:10033000F08F40462146F9E7001B61EB0201001CEB
:1003400041F5801300185B412018A2F5001747EB18
:10035000030140EAD570B6196D4111E06D084FEA0E
:10036000360645EAC0754FEA0752001B61EB0201F1
:10037000001C41F5801149084FEA30000019514135
:1003800032462B4603B0BDE8F04F00F057B9009855
:10039000012240000023D0EB020263EBE0730098DF
:1003A00021464FEAE074B8EB000061EB0401E9E795
:1003B00083F000435BE781F0004158E72DE9FE4FF1
:1003C00081EA030404F0004421F0004100944FF05E
:1003D000000B23F0004350EA01045ED052EA03040C
:1003E0005BD0C3F30A54C1F30A552C44A4F2F3348E
:1003F0000194A0FB0254C1F3130141F48011C3F333
:10040000130343F4801301FB024400FB034E840AF0
:10041000970A44EA815447EA8357A4FB0768029588
:100420008D0A05FB07854FEA932C04FB0C54270526
:10043000029D4FEA065847EA1637B5EB08056EEB02
:10044000070C870E920E47EA811742EA8312A7FB38
:100450000201B6EB0B0164EB00042B0D43EA0C33F5
:100460005E1844EB1C50DA465146E7FB0201C5F327
:1004700013044FEA0B3343EA14534FEA0432019C4E
:1004800043EA0603A4F10C040294009CCDE900B4F5
:1004900000F0E3F803B0BDE8F08F00200146F9E773
:1004A0000EB5C10F80EAE0700844CA07002140F28F
:1004B00033438DE80E000A460B4600F0CEF803B039
:1004C00000BD0EB540F2334102910021CDE900118B
:1004D0000A460B4600F0C1F803B000BD00F0004230
:1004E00030F000400AD0C10D01F56071C0F3160074
:1004F00042EA0151C20840071143704700200146FB
:100500007047000030B5041E71F1000404DB4FF0A9
:100510000044404264EB0101141E73F1000405DB4A
:100520001C464FF00043524263EB04038B4208BF6A
:10053000824230BD01F0004330B421F0004150EA66
:10054000010206D00A0DA2F56072C1F31301002A60
:1005500002DC30BC00207047440F44EAC104C100F3
:10056000E01830BC00EBC25000F031B8202A04DBA8
:10057000203A00FA02F1002070479140C2F12003B6
:1005800020FA03F3194390407047202A04DB203AF5
:1005900021FA02F00021704721FA02F3D040C2F1A3
:1005A00020029140084319467047202A06DBCB17EA
:1005B000203A41FA02F043EAE07306E041FA02F31E
:1005C000D040C2F1200291400843194670470029EB
:1005D000A8BF7047401C490008BF20F001007047C9
:1005E00010B4B0FA80FC00FA0CF050EA010404BF29
:1005F00010BC704749B1CCF1200421FA04F411FA7F
:100600000CF118BF012121430843A3EB0C01CB1DC2
:100610004FEA00614FEA102042BF002010BC704733
:1006200000EBC35010440029A4BF10BC7047401C0D
:10063000490008BF20F0010010BC704710B5141E1F
:1006400073F1000408DA401C41F1000192185B418B
:100650001A4301D120F0010010BD2DE9F04D924662
:100660009B4611B1B1FA81F202E0B0FA80F2203279
:100670009046FFF77BFF04460F4640EA0A0041EA36
:100680000B0153465A46084313D0114653EA010062
:1006900019D0C8F140025046FFF777FF05460E46D5
:1006A000504659464246FFF761FF084305D00120F6
:1006B00004E020463946BDE8F08D0020054346EAB7
:1006C000E0762C4337430A986305E40AA0EB080060
:1006D0000022FD0A44EA47540A3002D500200146B0
:1006E000E9E7010510196941DDE90845001969418B
:1006F000BDE8F04DA2E70000064C074D06E0E068BB
:1007000040F0010394E8070098471034AC42F6D358
:10071000FFF73EFD80AB0008A0AB00082DE9F04DCF
:1007200081EA030404F0004B21F0004514464FF029
:10073000000A23F0004150EA050220D054EA0102E9
:100740001DD0C5F30A570246C5F31303C1F31300C6
:10075000C1F30A5640F4801543F48013A7EB060852
:10076000101BD64608F2FD3873EB050002D308F1E2
:10077000010801E092185B41B8F1000F03DA002094
:100780000146BDE8F08D00204FF4801106468446F6
:100790000EE0171B73EB050705D3121B63EB050374
:1007A00006434CEA010C49084FEA300092185B41BD
:1007B00050EA0107EDD152EA030012D082EA0400A8
:1007C00083EA0501084305D0101BAB4106D2012284
:1007D000002306E000224FF0004302E06FF0010228
:1007E00053101AEB06004CEB085110EB0A0041EBDA
:1007F0000B01BDE8F04DFFF721BF70B5C1F30A5200
:1008000001F000450024C1F3130140F2FF3341F42D
:1008100080119A4201DA002070BD40F233439A42BF
:10082000A2F2334203DC5242FFF7AFFE00E09040F9
:100830002C43F1D0404270BD70B58C1810F8015BAC
:1008400015F0070301D110F8013B2A1106D110F869
:10085000012B03E010F8016B01F8016B5B1EF9D16D
:100860002B0705D40023521E0DD401F8013BFAE7F3
:1008700010F8013BCB1A921C03E013F8015B01F85E
:10088000015B521EF9D5A142D8D3002070BD0000F3
:1008900010B507F073FD02F043F901F04DF908F0CF
:1008A0005DF800F049F80120194908700020194945
:1008B00088700870487001201749887000200870FF
:1008C0001649088088700871C870A1F86A00042071
:1008D00081F85800202081F85900272081F869000C
:1008E000002081F8680081F87800012081F8790003
:1008F00064220B490B4808F021FC64220A490B488A
:1009000008F01CFC64220A490A4808F017FC10BDD4
:100910004800002000140020EC130020B406002042
:10092000C40C002060040020440D0020A40400201A
:10093000C40D0020E8040020002007498871C87118
:100940000120887300200549087003498874C87421
:100950000120487070470000EC13002010010020B7
:1009600008B59FEDFE0AFE4880ED000AB1EE080AC8
:10097000FC4880ED3F0A80ED340AFB4800780128EE
:1009800004D1B9EE0E0AF74880ED4A0AF74800781C
:1009900001280CD100220121F54804F077FD002246
:1009A0000221F34804F072FD0020F0490870F1487C
:1009B000807B072874D004DC012807D0062870D17A
:1009C0000EE10B286FD00C28F9D1AAE0EA48007894
:1009D000052808DDE9480078012804D1E6480078B8
:1009E000401CE5490870E44800780D2806D106202F
:1009F000E14908700020E149087008E0DE4800780D
:100A0000062804DCDC480078401EDB490870012021
:100A1000D84908718870DA480078D9498870D64872
:100A2000007840B24870084690F90000062806DCBD
:100A30000846007818B10120CE49887202E00220F1
:100A4000CC498872CE4890F90000072811DBCC48C9
:100A500090F9010006280CDCC948807848B1C848E4
:100A60004078C74908700120C24988720B208873FA
:100A700022E20020BF49C874887406208873C048E9
:100A8000007840B9BE4890F90100062803DD022035
:100A9000887206208873BA484078B94908700BE21A
:100AA0009BE108E2FFE7B348B0F91000FA2805DB44
:100AB0000020B04908820C20887331E0AD48008ADC
:100AC000401C00B2AB4908820020A74908709FED86
:100AD000AD0AA44880ED4A0AAB488089A54908813F
:100AE000002000900846018900231A46A74807F015
:100AF0003FFFA74890ED011AF0EE410AA548D0ED5E
:100B0000061AA54890F9000001EE100AB8EEC11AC5
:100B100021EE811AB0EE410A9FEDA01A06F078FD91
:100B2000CAE19F4890F86800012804D19148B0F9C3
:100B30001000142804DA8F48B0F91000B42808DB3C
:100B400000208C49088201208749087089498873F0
:100B500045E08848008A401C00B286490882084661
:100B6000B0F91000822817DC8E4890ED001AF0EEE4
:100B7000410A8848D0ED061A874890F9000001EE36
:100B8000100AB8EEC11A21EE811AB0EE410A9FEDAB
:100B9000831A06F03DFD22E0834890ED062A7E4848
:100BA00090F9000001EE900AF8EEE11A62EE211AC7
:100BB000B0EE611A7B48D0ED001AF0EE610A75487C
:100BC00090ED062A744890F9000001EE900AF8EEC4
:100BD000E11A62EE211AB0EE610A06F019FD6BE12E
:100BE0006448B0F91000F02802DB7048008838B182
:100BF0006048B0F9100082282FDB6C48008860B391
:100C000000205C49887008460079012807D16748B0
:100C10000088401C654908800020564908716349D6
:100C2000088800EBD0714910A0EB4101012905D1E2
:100C300007205049887300200882CDE05B4908886E
:100C400000EBD0714910A0EB4101002904D1012033
:100C50004849887300200882BEE046488078012811
:100C600048D127204E4981F869005049088800EB97
:100C7000D0714910A0EB410101293CD1404890F9C5
:100C80000100494901EB800090ED002A424890F9AB
:100C9000000001EE900AF8EEE11A62EE211AB0EEC1
:100CA000611A3448807A401E3E4901EB8000D0ED45
:100CB000001AF0EE610A324890F90100354901EB63
:100CC000800090ED002A344890F9000001EE900A6F
:100CD000F8EEE11A62EE211AB0EE610A06F098FC15
:100CE00027202F4981F869002248008A401C00B261
:100CF0002049088270E02D49088800EBD071491026
:100D0000A0EB410141BB2720254981F86900194822
:100D1000807A401E234901EB800090ED001AF0EE2E
:100D2000410A174890F901001A4901EB8000D0ED03
:100D3000001A194890F9000001EE100AB8EEC11A25
:100D400021EE811AB0EE410A9FED141A06F060FC04
:100D50000B4890F901002BE03EE00000CDCCCC3FE9
:100D6000500100206C100020C5020020C7020020A6
:100D700000000240EC130020C8020020C602002040
:100D8000100100209A9999BF90020020D002002003
:100D90005402002010020020480000200000000043
:100DA000B4060020440200205C020020CA02002099
:100DB000424931F81000424908810020009008465D
:100DC000018900231A463F4807F0D2FD3C48008ABB
:100DD000401C00B23A4908826EE03B4890F8680037
:100DE000012804D13648B0F91000142811DA34482B
:100DF000B0F910008C2803DB34484078052808D16E
:100E00002F48B0F91000FA2809DB3048407805284F
:100E100005D100202A490882062088734AE0012073
:100E20002749087188702720274981F869002448DC
:100E3000008A401C00B2224908820846807A0128B4
:100E40001AD1224890F90100214901EB800090ED70
:100E5000001A204890F9000000EE900AF8EEE00A2F
:100E600061EE200AB0EE600A1FED341A1A48D0ED88
:100E7000000A06F0CDFB1DE01148807A022819D146
:100E8000124890F90100124901EB800090ED001A20
:100E9000104890F9000000EE900AF8EEE00A61EECA
:100EA000200AB0EE600A1FED431A0C48D0ED000A8C
:100EB00006F0AEFB00E000BF00BF08BD90020020BE
:100EC000EC130020D0020020B40600201001002006
:100ED00010020020480000204C0200205002002098
:100EE00008B5FE48007801280CD100220121FC48F9
:100EF00004F0CCFA00220221F94804F0C7FA0020DD
:100F0000F6490870F748807B0B286FD2DFE800F0C5
:100F10006E06FDFCFBFAF9F8F7F6F500B1EE080AEB
:100F2000F14880ED3F0A80ED340AF04890ED000A68
:100F3000ED4880ED4A0A0120EA49087188700846A8
:100F4000C07930B10846C079E94991F9001088426A
:100F500000D14EE2E6480078E5498870E148C07962
:100F600040B24870084690F90000062803DC0120D2
:100F7000DC49887202E00220DA498872DC4890F984
:100F80000100DB4991F90010401A062812D1D84817
:100F9000807878B1D348C07860B90120D149C87051
:100FA000D3488078D24908700120CE498872042045
:100FB0008873CEE7CE4890F90100CD4991F9001031
:100FC000401A801D98B9CA48807880B1C548C07859
:100FD00068B90120C349C870C5488078C449087001
:100FE0000220C049887205208873B2E7FDE3C0493A
:100FF00091F90110BE4A92F90020881A002801DBFD
:10100000014600E04142062976D00020B549C8706B
:10101000B74890F90000062854DCB54890F9010063
:1010200007284FDBB2488078A0B30120C874B048CD
:1010300090F9000003280CDCAD4890F90100072866
:1010400007DBAB4890F90100092802DC0120887415
:1010500033E0A74890F90000032808DCA44890F981
:1010600001000A2803DB02209E49887425E0A0487D
:1010700090F9000004280EDB9D4890F90000062836
:1010800009DC9B4890F901000A2804DB02209549FD
:10109000887412E016E0964890F9000004280CDBF2
:1010A000934890F90000062807DC914890F9010068
:1010B000092802DC01208B49887402208949887242
:1010C000887367E08A4890F90000072852DB884857
:1010D00090F9010006284DDC85488078B0B30220E5
:1010E0008049C874824890F90000092812DC8048C1
:1010F00090F90100032809E051E0FDE3A8E32DE3A6
:10110000B1E2DAE1A1E04BE074E110E102DC0120A0
:10111000887429E0764890F90000092808DC7448B2
:1011200090F90100042803DB02206E4988741BE05B
:101130006F4890F900000A2809DB6D4890F901001A
:10114000042804DB0220674988740DE012E0684837
:1011500090F900000A2807DB654890F90100032890
:1011600002DC01205F49887401205E4988720220F8
:1011700088730FE000205B49C87488740620887368
:101180005B48007830B95A4890F90100062801DD23
:10119000022088725648407855490870EAE3E9E32E
:1011A000544890F8680001280AD14E48B0F9100060
:1011B000322805DB00204B4908820820887343E071
:1011C0009FED4D0A484880ED4A0A012045490870C4
:1011D0000846008A401C00B208820846B0F9100098
:1011E000642803DC0020434981F86800404890F9F6
:1011F0000100424931F810003A490881002000906E
:101200000846018900231A463D4807F0B1FB3D48D6
:1012100090ED001AF0EE410A354890F900003A4985
:1012200001EB8000D0ED001A384890F9000001EE83
:10123000100AB8EEC11A21EE811AB0EE410A9FEDF4
:10124000341A06F0E5F995E394E32A4890F868002B
:1012500001280AD12348B0F91000322805DB00200C
:10126000204908820820887360E09FED230A1E4809
:1012700080ED4A0A01201B4908700846008A401C7C
:1012800000B208820846B0F91000642803DC002090
:10129000184981F86800164890F90100174931F89B
:1012A00010001049088100200090084601890023A1
:1012B0001A46134807F05CFB124890ED011AF0EE55
:1012C000410A0B4890F900000F4901EB8000D0ED76
:1012D000001A0E4890F900001CE0000013010020E5
:1012E00000000240EC1300206C100020B802002027
:1012F00010010020B4060020666666BF9002002040
:10130000D0020020540200201002002048000020DB
:101310000000000001EE100AB8EEC11A21EE811A99
:10132000B0EE410A1FED061A06F072F922E3FC48FE
:1013300090F8680001280AD1FA48B0F91000142882
:1013400005DB0020F74908820320887351E0F54847
:10135000008A401C00B2F34908820846C07C01287C
:1013600006D1F14890ED000AED4880ED180A09E039
:10137000EC48C07C022805D1EB4890ED010AE84812
:1013800080ED180AE748807C012817D1E44890EDE9
:10139000181AF0EE410AE54890F9000001EE100A33
:1013A000B8EEC11AE248D0ED001A21EE211AB0EED3
:1013B000410A1FED291A06F02BF91AE0D948807C62
:1013C000022816D1D64890ED181AF0EE410AD748F7
:1013D00090F9000001EE100AB8EEC11AD548D0ED20
:1013E000001A21EE211AB0EE410A1FED371A06F05D
:1013F0000FF9BFE2CA4890F8680001280AD1C9482D
:10140000B0F91000142805DB0020C6490882062028
:10141000887351E0C348008A401C00B2C149088269
:101420000846807C012806D1C14890ED000ABC48DE
:1014300080ED170A09E0BB48807C022805D1BD4831
:1014400090ED000AB64880ED170AB648C07C012826
:1014500017D1B54890ED011AF0EE410AB048D0ED31
:10146000171AB24890F9000001EE100AB8EEC11A3E
:1014700021EE811AB0EE410A1FED5B1A06F0C8F8A2
:101480001AE0A848C07C022816D1A74890ED001A9F
:10149000F0EE410AA248D0ED171AA44890F90000D6
:1014A00001EE100AB8EEC11A21EE811AB0EE410A1F
:1014B0001FED691A06F0ACF85CE2994890F86800F4
:1014C000012838D19748B0F91000322833DB0020CA
:1014D0009449887008460079012807D19648008809
:1014E000401C9549088000208E490871924A118855
:1014F00001EBD1725210A1EB4202012A0DD1894AAF
:10150000507900EBD0725210A0EB42022AB10720B2
:101510008449887300200882A4E08749088800EB8A
:10152000D0714910A0EB4101E9BB08207D498873C7
:101530000020088296E07B488078012833D17E49DC
:10154000088800EBD0714910A0EB410101293ED180
:101550007A4890F901007A4901EB800090ED002A69
:10156000724890F9000001EE900AF8EEE11A62EE7E
:10157000211AB0EE611A6B48807A401E6A4901EB6D
:101580008000D0ED001AF0EE610A6C4890F901007D
:101590006C4901EB800090ED002A644890F900004E
:1015A00001EE900A00E059E0F8EEE11A62EE211A2D
:1015B000B0EE610A06F02CF82720594981F869003D
:1015C0005848008A401C00B2564908824AE05A49ED
:1015D000088800EBD0714910A0EB4101F1BB272036
:1015E0004F4981F869004F48807A401E4E4901EB0F
:1015F000800090ED001AF0EE410A504890F9010089
:10160000504901EB8000D0ED001A484890F90000E5
:1016100001EE100AB8EEC11A21EE811AB0EE410AAD
:101620001FEDC51A05F0F4FF3D4890F87800012839
:1016300010D0424890F90100434931F8100039496F
:101640000881002000900846018900231A463F487F
:1016500007F08EF93348008A401C00E002E000B237
:101660003049088286E12E4890F8680001280AD1A6
:101670002C48B0F91000322805DB002029490882E7
:10168000062088734AE001202649087188702720C7
:10169000234981F869002348008A401C00B221498F
:1016A00008820846807A01281AD1244890F901005E
:1016B000244901EB800090ED001A1C4890F90000CD
:1016C00000EE900AF8EEE00A61EE200AB0EE600A41
:1016D0001FEDF11A1E48D0ED000A05F099FF1DE03C
:1016E0001048807A022819D1144890F90100154950
:1016F00001EB800090ED001A0C4890F9000000EE1C
:10170000900AF8EEE00A61EE200AB0EE600A9FED62
:10171000111A1148D0ED000A05F07AFF2AE1000005
:10172000B4060020EC1300204402002048000020F2
:10173000B0020020B402002014010020100100209B
:101740005C0200201002002090020020D002002045
:101750004C0200200000000050020020864890F853
:10176000680001280BD18548B0F91000322806DB4B
:1017700000208249087008820920887367E02720CA
:101780007D4981F869007D48008A401C00B27B4990
:1017900008820846007848BB794890F901007949E9
:1017A00001EB800090ED002A774890F9000001EEEF
:1017B000900AF8EEE11A62EE211AB0EE611A6F4853
:1017C000807A401E714901EB8000D0ED001AF0EEE6
:1017D000610A6B4890F901006D4901EB800090EDC2
:1017E000002A694890F9000001E0C2E00AE001EE39
:1017F000900AF8EEE11A62EE211AB0EE610A05F0E5
:1018000007FF24E05D480078012820D15B48807AFA
:10181000401E5E4901EB800090ED001AF0EE410A97
:10182000574890F901005A4901EB8000D0ED001AA9
:10183000554890F9000001EE100AB8EEC11A21EEE9
:10184000811AB0EE410A1FED3D1A05F0E1FE91E06C
:101850004A49487900EBD0714910A0EB410111B918
:101860004649C97849B14549C97801290BD143494D
:10187000B1F91010B1F5967F05DB00203F490882D1
:101880000A20887337E03D48008A401C00B23B497B
:1018900008823B4890F901003A4901EB800090ED45
:1018A000002A394890F9000001EE900AF8EEE11A9A
:1018B00062EE211AB0EE611A3048807A401E334938
:1018C00001EB8000D0ED001AF0EE610A2C4890F98F
:1018D00001002F4901EB800090ED002A2A4890F981
:1018E000000001EE900AF8EEE11A62EE211AB0EE65
:1018F000610A05F08DFE3DE0FFE71F4890F86800A3
:1019000001280AD11D48B0F91000322805DB00205B
:101910001A490882012088732AE02720164981F895
:1019200069001648008A401C00B214490882084623
:10193000807A401E154901EB800090ED001AF0EE10
:10194000410A0F4890F90100114901EB8000D0EDE8
:10195000001A0D4890F9000001EE100AB8EEC11A05
:1019600021EE811AB0EE410A1FED861A05F050FEF5
:1019700000E000BF00BF08BDB4060020EC1300204B
:10198000100100205C0200204800002044020020DA
:101990001002002000BFFEE710B5024802F04EFE24
:1019A00010BD0000D002002010B5024802F046FE33
:1019B00010BD0000F8020020F0B589B007460C46C3
:1019C00015461E464FF400700390002005900690C7
:1019D00008200790380A8DF80400F8B28DF8050049
:1019E000200A8DF80600E0B28DF80700280A8DF86D
:1019F0000800E8B28DF80900300A8DF80A00F0B24C
:101A00008DF80B006B4601AA03A9024802F01BFCEB
:101A100009B0F0BDD0020020F0B589B007460C46F1
:101A200015461E464FF40070039000200590069066
:101A300008200790380A8DF80400F8B28DF80500E8
:101A4000200A8DF80600E0B28DF80700280A8DF80C
:101A50000800E8B28DF80900300A8DF80A00F0B2EB
:101A60008DF80B006B4601AA03A9024802F0EBFBBC
:101A700009B0F0BDF8020020F0B589B007460C4669
:101A800015461E4640F2FF10039000200590069078
:101A900008200790380A8DF80400F8B28DF8050088
:101AA000200A8DF80600E0B28DF80700280A8DF8AC
:101AB0000800E8B28DF80900300A8DF80A00F0B28B
:101AC0008DF80B006B4601AA03A9024802F0BBFB8C
:101AD00009B0F0BDD0020020F0B589B007460C4631
:101AE00015461E4640F2FF10039000200590069018
:101AF00008200790380A8DF80400F8B28DF8050028
:101B0000200A8DF80600E0B28DF80700280A8DF84B
:101B10000800E8B28DF80900300A8DF80A00F0B22A
:101B20008DF80B006B4601AA03A9024802F08BFB5B
:101B300009B0F0BDF802002000B595B00120139067
:101B4000002011900120129000200B900C900D901D
:101B50000E9010900F900E2014900BA9134802F0D5
:101B60001DFC124803F003F90221104802F056FB55
:101B7000012009900020079001200890002001908A
:101B80000290039004900E200690012005900E20F4
:101B90000A9001A9064802F001FC054803F0E7F8A5
:101BA0001021034802F03AFB15B000BDD00200201E
:101BB000F802002010B52DED028B0446B0EE408AED
:101BC0000A4880ED008A002005E008490A5C011DF2
:101BD000074B5A54401C0428F7DB0F230822044902
:101BE000204605F0A8FCBDEC028B10BDF0000020E3
:101BF000E800002010B52DED028B0446B0EE408ABF
:101C00000A4880ED008A002005E008490A5C011DB1
:101C1000074B5A54401C0428F7DB0F2308220449C1
:101C2000204605F088FCBDEC028B10BDD8000020DA
:101C3000D000002010B52DED028B0446B0EE408A96
:101C40000A4880ED008A002005E008490A5C011D71
:101C5000074B5A54401C0428F7DB0F230822044981
:101C6000204605F068FCBDEC028B10BDE4000020AE
:101C7000DC00002010B586B00446314890ED000A23
:101C8000304880ED000A20780D2851D160780A286C
:101C90004ED1A07E0A284BD1E07E0D2848D11822D3
:101CA000A11C2748FEF7BFFA2548007F401C2449A5
:101CB0000877084690ED000A2248D0ED000A30EE81
:101CC000C00ADFED210AB4EEE00AF1EE10FA09DBFA
:101CD000084690ED000ADFED1D0A30EE200A80ED87
:101CE000000A19E0164890ED000A1648D0ED000AE7
:101CF00030EEC00ADFED160AB4EEE00AF1EE10FA9B
:101D00000AD20F4890ED000ADFED100A30EEC00A4B
:101D1000B1EE400A80ED000A142209490C316846F0
:101D2000FEF781FA06480EC80A4808F041FD04E0B3
:101D300003488069401C0249886106B010BD00005C
:101D4000B4130020CC000020000034430000B44352
:101D5000000034C3D41300200FB49DED060ADDED5E
:101D6000050A30EE200ADDED070A30EE200A16489B
:101D700080ED080A9DED060AB1EE400ADDED050A88
:101D800030EE200ADDED070A30EE200A80ED130A5E
:101D90009DED060ADDED050A30EE600ADDED070A6D
:101DA00030EE200A80ED1E0A9DED060AB1EE400AD3
:101DB000DDED050A30EE600ADDED070A30EE200A9F
:101DC00080ED290A04B070476C10002010B52DED8D
:101DD0000C8B9CB0FE4890ED0B0AD0ED170A30EE4C
:101DE000600A80ED130A90ED0C0AD0ED180A30EE6F
:101DF000600A80ED140A90ED140A10EE101A0846DD
:101E0000FEF76CFB41EC1B0BF14890ED0E0AB1EEB6
:101E1000400ADFEDF00A20EE200A10EE101A084604
:101E2000FEF75CFB41EC1D0BB0EE4D0AF0EE6D0AC7
:101E300007F01EFEB0EE40CAF0EE60CA53EC1B2B5A
:101E400051EC1C0BFEF7BAFA41EC190BE04890ED8F
:101E5000130A10EE101A0846FEF740FB41EC1B0B6C
:101E6000DB4890ED0E0ADFEDDB0A20EE200A10EED3
:101E7000101A0846FEF732FB41EC1D0BB0EE4D0A7E
:101E8000F0EE6D0A07F0DCFCB0EE40CAF0EE60CA7E
:101E900053EC1B2B51EC1C0BFEF790FA41EC1A0B88
:101EA00053EC192BFEF784FA41EC180BFEF742FBBA
:101EB000C7490864084690ED140A10EE101A084647
:101EC000FEF70CFB41EC1B0BC14890ED0E0ADFED59
:101ED000C10A20EE200A10EE101A0846FEF7FEFA9C
:101EE00041EC1D0BB0EE4D0AF0EE6D0A07F0A8FCB8
:101EF000B0EE40CAF0EE60CA53EC1B2B51EC1C0B49
:101F0000FEF75CFA41EC180BB14890ED130A10EEA5
:101F1000101A0846FEF7E2FA41EC1B0BAC4890EDB4
:101F20000E0AB1EE400ADFEDAB0A20EE200A10EEF9
:101F3000101A0846FEF7D2FA41EC1D0BB0EE4D0A1E
:101F4000F0EE6D0A07F094FDB0EE40CAF0EE60CA04
:101F500053EC1B2B51EC1C0BFEF730FA41EC1A0B27
:101F600053EC182BFEF783F941EC190BFEF7E2FA5C
:101F700097494864084690ED0E0AD0ED190A30EEF4
:101F8000600A80ED120A90F85900202853D10846C3
:101F900000F0B6F98E4890ED110A10EE101A0846BE
:101FA000FEF79CFA41EC190BB0EE490AF0EE690A13
:101FB00007F052FDB0EE408AF0EE608A9FED860B8E
:101FC00053EC102B51EC180BFEF79CFA32D28448DC
:101FD000007803282ED1824880780028FAD18148E1
:101FE0000068FEF77BFA41EC190B9FED7F0B53EC79
:101FF000102BFEF7DDF941EC180BFEF79BFA79493F
:10200000086008460068FEF769FA41EC180B9FED7E
:10201000780B53EC102BFEF775FA04D89FED760A77
:10202000704880ED000A6F4890ED000A684818304B
:1020300008F032FBB7E0664890F85900212811D12A
:10204000634890ED080A80ED050A90ED090A80EDDD
:10205000060A90ED0A0A80ED070A20205C4981F803
:102060005900A0E05A4890F85900222808D1584851
:1020700000F046F9564890ED080A80ED050A92E016
:10208000534890F85900232808D1514800F038F9F6
:102090004F4890ED090A80ED060A84E04C4890F81C
:1020A000590024280CD14A4800F02AF9484890EDFC
:1020B000080A80ED050A90ED090A80ED060A72E033
:1020C000434890F8590025286DD1414800F018F98F
:1020D0003F488079012805D19FED480A3C4880EDB2
:1020E000060A60E03A4890ED090A80ED060A90ED94
:1020F000110A10EE101A0846FEF7F0F941EC190B20
:10210000B0EE490AF0EE690A07F0A6FCB0EE408A8C
:10211000F0EE608A9FED300B53EC102B51EC180B56
:10212000FEF7F0F939D22A4890ED180A3448D0ED7C
:10213000000AB4EE600AF1EE10FA2ED12848807839
:1021400058BB28480068FEF7C9F941EC190B9FED10
:10215000260B53EC102BFEF72BF941EC180BFEF776
:10216000E9F92049086008460068FEF7B7F941EC34
:10217000180B9FED1F0B53EC102BFEF7C3F904D87F
:102180009FED1D0A174880ED000A164890ED000AE1
:102190000F48183008F080FA05E01A4890ED000A60
:1021A000104880ED000A0A4890F8780001282DD1E7
:1021B0009FED120A064880ED050A9FED100A80ED9A
:1021C000060A9FED0E0A80ED070A0088401C1BE0FE
:1021D000B406002035FA8E3C0000000000E0854087
:1021E000B00000204C000020333333333333F73F4B
:1021F0009A9999999999C93FCDCC4C3E000000001D
:102200000C02002050010020334908806C22324922
:1022100010316846FEF707F82F480FC8FFF79CFDFE
:1022200005F0B0FF2C480088B0F5C87F3BDB2A489A
:1022300090F87800012836D127480088B0F57A7FD9
:1022400008DB00200346024601460090234806F0C2
:102250008FFB08E00020034602464FF4FA6100902D
:102260001E4806F085FB00201BE01FED1C0A00EB5A
:10227000400101EBC0011A4A02EB810181ED080A1D
:102280001FED220A00EB400101EBC001154A02EBF1
:10229000810181ED080A0021134A22F81010411C27
:1022A000C8B20828E1DB104CB4F90630B4F90420B8
:1022B000B4F90210B4F90000FFF77EFBB4F90E3058
:1022C000B4F90C20B4F90A10B4F90800FFF7D4FBF4
:1022D0001CB0BDEC0C8B10BDB4060020D002002059
:1022E0006C100020CC1100205813002010B50348BA
:1022F00000F0EAFBFFF76AFD10BD0000B406002005
:1023000010B52DED068B0446FE4890F8690026288E
:1023100006D10120FC4908800F20FC4908800AE012
:10232000F84890F86900272805D11420F64908805C
:102330000920F6490880F34890F8590020287DD1FB
:10234000F248B0F90000FEF7ABF841EC180BED488D
:1023500090ED100A10EE101A0846FEF7BFF841EC97
:102360001A0BB0EE4A0AF0EE6A0A07F075FBB0EEFF
:10237000409AF0EE609A53EC182B51EC190BFEF7D3
:10238000C1F87DD8E148B0F90000FEF789F841ECCA
:10239000180BDC4890ED110A10EE101A0846FEF7F3
:1023A0009DF841EC1A0BB0EE4A0AF0EE6A0A07F00B
:1023B00053FBB0EE409AF0EE609A53EC182B51ECC0
:1023C000190BFEF79FF8DCD8CE4890ED120A10EEFC
:1023D000101A0846FEF782F841EC190BB0EE490AD4
:1023E000F0EE690A07F038FBB0EE408AF0EE608A42
:1023F0009FEDC70B53EC102B51EC180BFEF782F836
:10240000BFD89FEDC50ABF4880ED070A80ED060AD8
:1024100080ED050AC1480088401C00B2BF49088011
:102420000846B0F90000B849B1F90010884208DB4D
:102430000020BA4908800120B24900E004E081F898
:102440006800BDEC068B10BDAE4890F859002528F9
:102450007ED1AC4890ED030A10EE101A0846FEF744
:102460003DF841EC190BB0EE490AF0EE690A07F0AD
:10247000F3FAB0EE408AF0EE608A9FEDA90B00E01F
:10248000D6E053EC102B51EC180BFEF73BF82BD891
:102490009C4890ED110A10EE101A0846FEF71EF83F
:1024A00041EC190BB0EE490AF0EE690A07F0D4FAD4
:1024B000B0EE408AF0EE608A9FED9B0B53EC102B40
:1024C00051EC180BFEF71EF80ED899480088401CF6
:1024D00000B2974908800846B0F90000142806DBCE
:1024E00001208849887102E00020914908808748CE
:1024F000B0F90000FDF7D4FF41EC180B814890EDD6
:10250000100A10EE101A0846FDF7E8FF41EC1A0B0E
:10251000B0EE4A0AF0EE6A0A07F09EFAB0EE409A70
:10252000F0EE609A53EC182B51EC190BFDF7EAFF13
:102530007ED87448807901287AD19FED770A714856
:1025400080ED070A80ED050A74480088401C00E011
:1025500014E000B2714908800846B0F900006A49E9
:10256000B1F90010884208DB0020664988716B4988
:1025700008800120634981F8680062E7614890F8AB
:10258000590022285DD16148B0F90000FDF788FFAD
:1025900041EC180B5B4890ED110A10EE101A08463A
:1025A000FDF79CFF41EC1A0BB0EE4A0AF0EE6A0A06
:1025B00007F052FAB0EE409AF0EE609A53EC182B06
:1025C00051EC190BFDF79EFFB2D84E4890ED120A60
:1025D00010EE101A0846FDF781FF41EC190BB0EE22
:1025E000490AF0EE690A07F037FAB0EE408AF0EED9
:1025F000608A9FED470B53EC102B51EC180BFDF745
:1026000081FF95D89FED440A3E4880ED070A80ED92
:10261000060A42480088401C00B24049088008462B
:10262000B0F900003849B1F90010884208DB00E039
:10263000ACE00020394908800120324981F8680067
:10264000FFE6304890F85900232874D12F48B0F99C
:102650000000FDF725FF41EC180B2A4890ED100A09
:1026600010EE101A0846FDF739FF41EC1A0BB0EED8
:102670004A0AF0EE6A0A07F0EFF9B0EE409AF0EE7F
:10268000609A53EC182B51EC190BFDF73BFF7DD8EA
:102690001C4890ED120A10EE101A0846FDF71EFFB6
:1026A00041EC190BB0EE490AF0EE690A07F0D4F9D3
:1026B000B0EE408AF0EE608A9FED150B53EC102BC4
:1026C00051EC180BFDF71EFF74D89FED130A0D484F
:1026D00080ED070A80ED050A10480088401C00B212
:1026E0000E4908800846B0F900000749B1F900100A
:1026F000884206DB0020094908800120014981F851
:1027000068009EE6B406002054000020520000201D
:10271000000000000000F03F00000000500000201A
:10272000FCA9F1D24D62503F00000000000049407A
:1027300056000020FFE78B4890F85900242839D133
:10274000884890ED120A10EE101A0846FDF7C6FEF2
:1027500041EC190BB0EE490AF0EE690A07F07CF97A
:10276000B0EE408AF0EE608A1FED170B53EC102B91
:1027700051EC180BFDF7C6FE1CD81FED190A79485D
:1027800080ED070A78480088401C00E012E000B2A3
:10279000754908800846B0F900007449B1F9001085
:1027A000884206DB00207049088001206D4981F8CD
:1027B000680046E600206C4908806A4981F8680094
:1027C000084690F85900222809D00846D0ED100A92
:1027D000B0EE600A5FED300A654805F00BFD614818
:1027E00090F8590025280AD05E48D0ED110AB0EEC5
:1027F000600A5FED370A5E48443005F0FBFC59483B
:10280000D0ED120AB0EE600A5FED3D0A58488830FC
:1028100005F0F0FC94ED120ADFED560AB4EEE00A82
:10282000F1EE10FA06DD524890ED2B0A4D4880ED8E
:10283000070A07E04E4890ED2B0AB1EE400A4948DE
:1028400080ED070A4A48D0ED090AB0EE600A4A480E
:1028500008F029F84648D0ED1A0AB0EE600A474859
:1028600008F021F8444890ED010A10EE101A0846CD
:10287000FDF734FE41EC1A0BB0EE4A0AF0EE6A0A9C
:1028800007F0EAF8B0EE409AF0EE609A384890ED22
:10289000090A10EE101A0846FDF720FE41EC1A0B4B
:1028A000B0EE4A0AF0EE6A0A07F0D6F8B0EE408AB7
:1028B000F0EE608A53EC192B51EC180BFDF722FE59
:1028C00005D82B4890ED090A84ED050A04E02A4852
:1028D00090ED010A84ED050A284890ED010A10EEFA
:1028E000101A0846FDF7FAFD41EC1A0BB0EE4A0A41
:1028F000F0EE6A0A07F0B0F8B0EE408AF0EE608AB7
:102900001B4890ED1A0A10EE101A0846FDF7E6FD76
:1029100041EC1A0BB0EE4A0AF0EE6A0A07F09CF896
:10292000B0EE409AF0EE609A53EC182B51EC190B74
:10293000FDF7E8FD05D80E4890ED1A0A84ED060A69
:1029400004E00E4890ED010A84ED060A05488078FF
:10295000012805D19FED0A0A04F1180007F09CFE3A
:1029600000BF6EE5B4060020500000205400002097
:1029700030070020000034434C0600205C06002095
:10298000CDCCCC3F10B5024802F092FA10BD000049
:10299000EC05002010B5024802F08AFA10BD0000D4
:1029A0008C05002010B5024802F082FA10BD00002C
:1029B0002C0500200146087810381823B0FBF3F2EC
:1029C0000848805CC865032A05D908686FF30900C8
:1029D000001D886503E008686FF309008865886D4D
:1029E00070470000FCA90008014600208A6A8B6934
:1029F000CBB932B1012A0DD0022A03D0032A10D15B
:102A00000EE000BFCB6A03F08073B3F1807F00D18A
:102A1000012007E0CB6AB3F1C07F00D1012001E0C3
:102A200000E000BF34E08B69B3F5005F1AD132B12A
:102A3000012A07D0022A03D0032A11D10AE000BFDD
:102A400001200EE0CB6A03F08073B3F1807F00D1E8
:102A5000012006E0CB6AB3F1C07F00D1012000E085
:102A600000BF15E032B1012A05D0022A04D0032AA2
:102A70000CD103E000BF00BF012008E0CB6A03F0E7
:102A80008073B3F1807F00D1012000E000BF00BF60
:102A9000704730B50468246824F4802405682C60ED
:102AA000046863608468402C04D10468A2600468F0
:102AB000E16003E00468A1600468E26030BD704733
:102AC00072B600BFFEE70000114991ED090AD1ED91
:102AD000140A30EE600AF0EE000A80EE201A0D496A
:102AE00081ED031A0C4991ED030AB1EE400A80ED25
:102AF0000B0A91ED040AB1EE400A80ED0C0A91ED4B
:102B0000000ADFED060A20EE200A80ED0E0A70476B
:102B10006C100020B4060020D4130020DE2E654285
:102B200010B5DFED0B0A9FED0B0A0B4807F0DCFE3A
:102B3000DFED070A9FED070A084807F0D5FEDFED35
:102B4000040A9FED070A074807F0CEFE10BD0000FB
:102B50008FC2F53CA69BC43A4C0600205C060020C0
:102B60006F12033A6C06002010B52DED068BFE485F
:102B7000007807287DD2DFE800F07C042C6AFCFB9B
:102B8000FA009FEDFA0AFA4880ED000A9FEDF90A73
:102B900080ED210AF448B0F90400462805DB002046
:102BA000F14988800220087012E001221146F248A3
:102BB00002F06CFC9FEDF11AF7EE000A9FEDEF0AB0
:102BC00004F034FDE8488088401C00B2E649888063
:102BD000D1E200F07DFF2620E94981F8690008462E
:102BE00090F8680001280ED1DF48B0F904003228BF
:102BF00009DB0020DC498880E14981F86800032076
:102C0000D949087022E000220121DB4802F03EFC95
:102C1000DC48DD49097800EB810090ED001ADB48C3
:102C200090F9000000EE900AF8EEE00A61EE200A4A
:102C3000B0EE600A9FEDD11ADFEDD50A04F0E8FC92
:102C4000C9488088401C00B2C749888093E2272089
:102C5000CB4981F86900C448B0F90400322804DB8C
:102C6000084690F86800012807D0BF48B0F9040072
:102C700000E07FE2B0F5487F14DBC6480078401CD6
:102C8000C44908700020BE498870B7498870BE48A2
:102C90000078401CBC4908700020B349888004209B
:102CA0000870DEE0BC480078012815D100240EE051
:102CB00004EB0411B94A02EB8100DFEDB90AB9490E
:102CC00091ED000AB84A002105F02CFB641C022C8F
:102CD000EEDB0020B0490870A948007901281AD11C
:102CE000A9480078FDF7EDFB41EC1A0B9FEDAF0B07
:102CF00053EC102BFDF762FB41EC190B9FEDAD0B74
:102D000053EC102BFDF7B3FA41EC180BFDF712FC56
:102D1000974908601EE09A48C07801281AD19A485D
:102D20000078FDF7CEFB41EC1A0B9FEDA00B53ECA6
:102D3000102BFDF743FB41EC190B9FEDA00B53EC5F
:102D4000102BFDF738FB41EC180BFDF7F3FB88491E
:102D5000C1F884008448B0F90400B0F5967F20DC07
:102D600081488078E8B987488749097802E0BEE160
:102D7000E2E077E000EB810090ED001A834890F9E3
:102D8000000000EE900AF8EEE00A61EE200AB0EED4
:102D9000600A9FED7A1A8B48D0ED000A04F038FCE7
:102DA00024E02520764981F859007648764909784B
:102DB00000EB8100D0ED000A744890F9000000EEAD
:102DC000100AB8EEC00A20EE800A6D4880ED170A9E
:102DD0007C4890ED000A6A4880ED180A9FED670A6A
:102DE00080ED190A9FED780A80ED090A6949087893
:102DF00000EBD0714910A0EB4101012902D1012063
:102E00005F49887058488078012824D125205C4982
:102E100081F859005B485C49097800EB8100D0EDEE
:102E2000000A5A4890F9000000EE100AB8EEC00AF5
:102E300020EE800A524880ED170A624890ED000AA1
:102E40004F4880ED180A9FED4D0A80ED190A9FED5D
:102E50005F0A80ED090A44488088401C00B242495C
:102E6000888088E15A480088782812DB0120594977
:102E70000870594908700020554908809FED3F0AA5
:102E80003B4880ED340A80ED130A0520364908706E
:102E900051E04F480088401C4D4908800846008892
:102EA0003C2813DA36480079012805D1BAEE040A25
:102EB0002F4880ED1E0A08E03148C078012804D16F
:102EC000B2EE040A2A4880ED3F0A54E12C4800790A
:102ED000012805D1BAEE020A254880ED130A08E060
:102EE0002748C078012804D1B2EE020A204880EDBC
:102EF000340A3848007801280BD1354800883C282E
:102F000007DB9FED360A3648FEF754FE00203149B4
:102F100008703148007801280BD12D4800885A28C4
:102F200007DB9FED160A2E48FEF784FE00202A4993
:102F3000087005F07DFD1EE12720114981F8690028
:102F40000948B0F90400322850DB084690F86800C0
:102F500001284BD123480078401C224908700020EA
:102F60000149888006203FE0B000002000E0A7442F
:102F7000CC11002000E0A7C40000024000000000C7
:102F8000B40600209C010020BC0200204800002064
:102F90000000A543BD020020BE0200203007002033
:102FA0000AD7A33D5001002070000020000000005F
:102FB00000001A400000000000FC944000000000E7
:102FC00000FC94C00C020020CDCCCCBF9A9999BED5
:102FD000C2020020BF020020C002002000007AC30D
:102FE000E8040020C402002008707FE064490878EB
:102FF00000EBD0714910A0EB4101E1B9614890EDBF
:10300000001AF0EE410A60480078401E5F4901EB6B
:103010008000D0ED001A5E4890F9000001EE100A21
:10302000B8EEC11A21EE811AB0EE410A1FED2D1A39
:1030300004F0EEFA1BE0534890ED011AF0EE410A5D
:1030400051480078401E514901EB8000D0ED001A34
:103050004F4890F9000001EE100AB8EEC11A21EEB7
:10306000811AB0EE410A1FED3B1A04F0D1FA49482B
:10307000B0F90400A02809DC9FED470A474880ED1D
:10308000130A9FED470A80ED340A08E01FED450A58
:10309000424880ED130A1FED470A80ED340A41488B
:1030A000007901280CD1364800780021A1EBC0003E
:1030B00000EE100AB8EEC00A384880ED000A0FE0B2
:1030C0003848C07801280BD12D480078002101EB49
:1030D000C00000EE100AB8EEC00A304880ED210AA8
:1030E0002C488088401C00B22A49888043E0294847
:1030F000B0F904003C2823DB9FED2B0A274880ED24
:10310000130A9FED2A0A80ED340A1F4800780C2824
:1031100009DB00201F49888008200870062021490B
:1031200081F858000BE000201A4988801FED6D0AD5
:103130001A4880ED3F0A80ED1E0A032008701AE04D
:1031400018480079012805D1B2EE040A134880ED31
:103150001E0A08E01348C078012804D1BAEE040A18
:103160000E4880ED3F0A0B488088401C00B2094998
:10317000888000E000BF00BFBDEC068B10BD0000E2
:10318000C402002004020020BC020020CC01002068
:1031900048000020B000002033331340CC11002041
:1031A000333313C0B4060020CDCC0C40CDCC0CC0C2
:1031B00010B52DED048BFE48007808287ED2DFE89C
:1031C00000F07D04296AF8F7F6F500F031FC0122E1
:1031D0001146F84802F05AF9F548B0F904004628BB
:1031E00009DB0020F2498880022008700020F249A3
:1031F00081F868000DE09FEDF11AF7EE000A9FEDEF
:10320000EF0A04F013FAEA488088401C00B2E8494B
:1032100088800EE300F00CFC00220121E54802F05A
:1032200035F900220221E34802F030F92620E24974
:1032300081F86900084690F8680001280AD1DC4846
:10324000B0F90400322805DB0020D949888003202A
:1032500008701FE0DA480078C0F10500D94901EB99
:10326000800090ED001AD84890F9000000EE900A16
:10327000F8EEE00A61EE200AB0EE600A9FEDCF1A88
:10328000DFEDD20A04F0C4F9C9488088401C00B2BE
:10329000C7498880CDE22720C74981F86900CC4A18
:1032A000117801EBD1725210A1EB42025AB9C04A17
:1032B000B2F90420322A06DBBF4A00E0B8E292F8F5
:1032C0006820012A10D0C24A107800EBD072521048
:1032D000A0EB4202F2B1B84A92F86820012A19D153
:1032E000BC4A9278012A15D10020B1498870B848AB
:1032F0000078401CB6490870B1480078401CB049BD
:1033000008700020AA498880AB4988700420A84929
:103310000870A7E0B0480078012815D100240EE01D
:1033200004EB0411AD4A02EB8100DFEDAD0AAD49BB
:1033300091ED000AAC4A002104F0F4FF641C022C59
:10334000EEDB0020A449087001209B498870A04949
:10335000087800EBD0714910A0EB410109B100F0F1
:10336000E1FD9348B0F90400B0F5967F22DC904867
:103370008078F8B992480078C0F10500914901EBD6
:10338000800090ED001A904890F9000000EE900A3D
:10339000F8EEE00A61EE200AB0EE600A9FED871AAF
:1033A0009248D0ED000A04F033F92AE005E2AFE1DB
:1033B000DBE058E02520804981F8590080480078FA
:1033C000C0F105007F4901EB8000D0ED000A7E4886
:1033D00090F9000000EE100AB8EEC00A20EE800A54
:1033E000754880ED170A814890ED000A724880ED1B
:1033F000180A9FED720A80ED190A9FED7D0A80ED93
:10340000090A6B488078012826D125206A4981F86D
:1034100059006B480078C0F105006A4901EB800053
:10342000D0ED000A684890F9000000EE100AB8EEEE
:10343000C00A20EE800A604880ED170A6B4890EDC4
:10344000000A5D4880ED180A9FED5C0A80ED190ABC
:103450009FED680A80ED090A55488088401C00B23B
:1034600053498880E5E15B4A92783AB9624A11781B
:1034700001EBD1725210A1EB42025AB95E4A1078A8
:1034800000EBD0725210A0EB420252BB514AD278EC
:10349000012A26D158480078401C5749087001205D
:1034A00056490870564908705349087800EBD071A6
:1034B0004910A0EB410119B103203D4908700CE00F
:1034C0000020444988709FED3D0A4E4880ED340A43
:1034D00080ED130A05203649087000203D49C87068
:1034E00042E04549087800EBD0714910A0EB41015A
:1034F00011B900F0D3FD0DE03F49087800EBD07121
:103500004910A0EB410129B132488078012801D14E
:1035100000F040FB3949097801290FD13649087874
:1035200000EBD0714910A0EB410139B99FED230A9E
:103530003548FEF77FFB0020304908703049097894
:1035400001290FD12C49087800EBD0714910A0EB6C
:10355000410139B19FED2D0A2B48FEF72BFB0020CE
:103560002749087005F064FA63E12720124981F8C1
:1035700069000F4AB2F90420502A0CDB0A4692F87F
:103580006820012A07D1224A117801EBD17252102A
:10359000A1EB42025AB1084A92F86820012A53D19D
:1035A0000C4A1279012A4FD1194A107832E03DE0D5
:1035B000B000002000000240B4060020000000001F
:1035C000BC00002054010020480000200000A5435A
:1035D000BD00002000140020BE00002030070020A5
:1035E0000AD7A33D50010020700000200C020020EB
:1035F000CDCCCCBF9A9919BFBF000020C0000020DD
:10360000C1000020CC110020E804002000007AC393
:10361000C200002000EBD0725210A0EB4202012A3F
:1036200012D1864AB2F90420322A0DDB00208449E7
:10363000087184480078401C8249087000207F4946
:1036400088800620087062E07E49087800EBD0711F
:103650004910A0EB4101A9BB7848B0F90400B0F5CE
:103660008C7F09DC9FED780A784880ED130A9FED86
:10367000780A80ED340A08E01FED300A734880EDC7
:10368000130A1FED320A80ED340A724890ED001AD9
:10369000F0EE410A70480078801E704901EB80000E
:1036A000D0ED001A6E4890F9000001EE100AB8EE55
:1036B000C11A21EE811AB0EE410A1FED401A03F043
:1036C000A7FF1EE0FFE704F04DFC624890ED011AF1
:1036D000F0EE410A60480078801E604901EB8000EE
:1036E000D0ED001A5E4890F9000001EE100AB8EE25
:1036F000C11A21EE811AB0EE410A1FED501A03F0F3
:1037000087FF4E488088401C00B24C49888090E07A
:103710004A4AB2F90420462A07DB524A117801EBE3
:10372000D1725210A1EB420262B14E4A107800EB06
:10373000D0725210A0EB4202012A28D1404A92785E
:10374000012A24D147480078401C464908700020CF
:103750003B4988701FED670A3C4880ED3F0A80EDC9
:103760001E0A4049087800EBD0714910A0EB4101D6
:1037700031B100203249088105203049087002E04B
:1037800007202E49087000202C49888014E0354914
:10379000087800EBD0714910A0EB410111B900F09D
:1037A00079FA01E004F0AAFB05F042F92348808889
:1037B000401C00B2214988803BE02048B0F9040059
:1037C000782823DC1D488088401C00B21B49888073
:1037D0002120254981F85900214890F900004042F4
:1037E000FCF75EFE41EC190B9FED200B53EC102B08
:1037F000FCF7E4FD41EC180BFCF79CFE1A4908624B
:103800009FED1C0A084680ED090A10E01248007876
:10381000062809DB00200949888008200870062056
:10382000114981F8580004E003200449087000E0C1
:1038300000BF00BFBDEC048B10BD0000B000002035
:1038400000140020C200002033331340CC110020AC
:10385000333313C0FC010020BC0000208401002091
:1038600048000020C3000020B40600209A999999CE
:103870009999E93FCDCCCC3E90ED010A80ED020A4A
:103880004A780B7842EA032200EE102AB8EEC00A0A
:1038900080ED010ACA788B7842EA032212B200EE68
:1038A000102AB8EEC00A80ED090A90ED090ADFED92
:1038B000060A20EE200A80ED090A4A790B7942EACD
:1038C000032212B2028570470A01DA394A780B786E
:1038D00042EA032200EE102AB8EEC00A80ED010A87
:1038E00090ED010A80ED030A90ED040AD0ED030A81
:1038F00030EE600A80ED040A7047000010B52DED2F
:10390000048B434890ED000AB1EE400AD0ED070A5F
:1039100030EE200A3F4880ED030A3D4890ED210A31
:10392000B1EE400AD0ED280A30EE200A394880ED89
:10393000040A90ED030A10EE101A0846FCF7CEFDBB
:1039400041EC190BB0EE490AF0EE690A06F084F872
:10395000B0EE408AF0EE608A9FED2F0B53EC102BF7
:1039600051EC180BFCF7CEFD2ED82A4890ED040A36
:1039700010EE101A0846FCF7B1FD41EC190BB0EE41
:10398000490AF0EE690A06F067F8B0EE408AF0EEF8
:10399000608A9FED210B53EC102B51EC180BFCF7B8
:1039A000B1FD11D81E480078401C1D49087008461A
:1039B00000780A2805DB0120164988700020184984
:1039C0000870BDEC048B10BD0020124988701548AA
:1039D000007901280AD10846D0ED030AB0EE600A4A
:1039E000DFED110A114804F005FC0EE00D48C07827
:1039F00001280AD10748D0ED040AB0EE600ADFEDD5
:103A00000A0A0A48443004F0F5FB00BFD9E7000079
:103A1000CC11002000140020000000000000244011
:103A200046010020B4060020000000001C0A00200F
:103A300010B523480088401C00B221490880B0EE30
:103A4000040A204880ED080A9FED1F0A80ED130A42
:103A50009FED1D0A80ED1E0AB8EE040A80ED290ACA
:103A60009FED1A0A80ED340A9FED180A80ED3F0A97
:103A70000846B0F90000962819DBB0EE000A11489C
:103A800080ED080AB1EE040A80ED130AB2EE040AD2
:103A900080ED1E0AB8EE000A80ED290AB9EE040A8C
:103AA00080ED340ABAEE040A80ED3F0A07E00448CC
:103AB000B0F90000B0F5967F01DB04F089FF10BD7E
:103AC00040010020CC1100206F1283BA6F12833A9C
:103AD00010B529480088401C00B2274908802748B3
:103AE000007901280DD19FED260A264880ED000AB5
:103AF0009FED250A80ED130A9FED230A80ED1E0A33
:103B000010E01E48C07801280CD19FED200A1D4806
:103B100080ED210A9FED1E0A80ED340A9FED1C0AFC
:103B200080ED3F0A1448B0F90000E6281BDB13487B
:103B30000079012809D1B1EE040A124880ED130A78
:103B4000B2EE060A80ED1E0A15E00C48C078012886
:103B500011D1B9EE040A0B4880ED340ABAEE060A18
:103B600080ED3F0A07E00448B0F90000B0F5C87FD7
:103B700001DB04F02DFF10BD44010020B40600203D
:103B800000E0A744CC1100206F1283BA00E0A7C464
:103B90006F12833A3848007868BB3848807801282B
:103BA00029D1374800883C2806DD002034490880A8
:103BB0000120314908705EE031480088401C3049DE
:103BC0000880BAEE040A2F4880ED1E0AB2EE040AFD
:103BD00080ED3F0A9FED2C0A80ED080A9FED2A0A2E
:103BE00080ED290A9FED280A80ED130A9FED260A31
:103BF00080ED340A3FE02048007801282AD120488F
:103C00000088782807DD00201D4908801B4988703E
:103C1000194908702FE01A480088401C184908808C
:103C2000B9EE080A174880ED130AB1EE080A80EDD4
:103C3000340A9FED160A80ED080A9FED150A80ED03
:103C4000290ABAEE040A80ED1E0AB2EE040A80EDDB
:103C50003F0A10E09FED0C0A0A4880ED080A9FED2C
:103C60000A0A80ED130A9FED080A80ED290A9FEDEC
:103C7000060A80ED340A70473A0100200014002043
:103C800038010020CC11002000000000CDCCCC3D3C
:103C9000CDCCCCBD9FED0C0A0C4880ED080A9FED01
:103CA0000A0A80ED130AB2EE040A80ED1E0A9FEDA7
:103CB000060A80ED290A9FED040A80ED340ABAEE67
:103CC000040A80ED3F0A704700000000CC1100207C
:103CD0009FED0C0A0C4880ED080A9FED0A0A80ED62
:103CE000130ABAEE040A80ED1E0A9FED060A80ED63
:103CF000290A9FED040A80ED340AB2EE040A80ED31
:103D00003F0A704700000000CC11002000B57E483B
:103D1000007890B97D4800883C2806DB01207A496C
:103D20000870002079490880ECE078480088401C41
:103D300076490880FFF7CCFFE4E07348007801285B
:103D400029D172480088782806DB02206E49087065
:103D500000206E490880D5E06C480088401C6B4903
:103D600008809FED6B0A6B4880ED080AB9EE040AE3
:103D700080ED130ABAEE040A80ED1E0A9FED660A72
:103D800080ED290AB1EE040A80ED340AB2EE040A8D
:103D900080ED3F0AB6E05C48007802283CD15B48E1
:103DA0000088A02809DB5D48807930B90320564996
:103DB0000870002055490880A4E001205849C870C7
:103DC00052480088401C51490880B8EE040A514806
:103DD00080ED080AB9EE040A80ED130ABAEE040A6F
:103DE00080ED1E0AB0EE040A80ED290AB1EE040A45
:103DF00080ED340AB2EE040A80ED3F0A08460088DE
:103E000064287FDBB8EE040A424880ED130AB0EE66
:103E1000040A80ED340A75E03B480078032829D174
:103E20003A4800883C2806DB042037490870002007
:103E30003649088066E035480088401C33490880D0
:103E40009FED330A334880ED080AB8EE040A80ED8E
:103E5000130AB2EE040A80ED1E0A9FED2F0A80EDD0
:103E6000290AB0EE040A80ED340ABAEE040A80EDA5
:103E70003F0A47E024480078042843D123480088BB
:103E800078280CDB01202649887008464079401CC0
:103E9000487100201C4908701C49088032E01B480A
:103EA0000088401C19490880B0EE040A194880EDCA
:103EB000080AB1EE040A80ED130AB2EE040A80ED9E
:103EC0001E0AB8EE040A80ED290AB9EE040A80ED54
:103ED000340ABAEE040A80ED3F0A084600887828C2
:103EE00010DBB0EE000A0B4880ED080AB0EE040AC1
:103EF00080ED130AB8EE000A80ED290AB8EE040A34
:103F000080ED340A00BD00004A0100204C01002071
:103F10006F1283BACC1100206F12833AB0000020D8
:103F20000014002056480078C8BB56488078B0BBC3
:103F3000554800887D2806DB012051490870002083
:103F4000514908809BE050480088401C4E49088039
:103F5000B9EE040A4D4880ED130AB1EE040A80ED73
:103F6000340AB8EE080A80ED080AB0EE080A80EDBF
:103F7000290ABAEE040A80ED1E0AB2EE040A80EDA8
:103F80003F0A08460088642879DBBFEE000A3F48F4
:103F900080ED130AB7EE000A80ED340A6FE0FFE708
:103FA00037480078012832D1374800883C280FDB99
:103FB0009FED370A354880ED1E0A9FED350A80EDEA
:103FC0003F0A02202E49087000202F49088056E041
:103FD0002D480088401C2C490880B2EE040A2B486A
:103FE00080ED1E0ABAEE040A80ED3F0A9FED290A11
:103FF00080ED080A9FED260A80ED130A9FED260A40
:1040000080ED290A9FED220A80ED340A37E01C4832
:104010000078022833D11C4800888C2819DB9FEDDA
:104020001C0A1A4880ED080AB0EE040A80ED130A53
:104030009FED170A80ED290AB8EE040A80ED340AD4
:1040400001201049887000200D4908700E49088031
:1040500015E00D480088401C0B490880B1EE060AA7
:104060000A4880ED080AB2EE060A80ED130AB9EE9E
:10407000060A80ED290ABAEE000A80ED340A70477C
:10408000340100200014002036010020CC11002053
:10409000000000006F1283BA6F12833A00B53248F5
:1040A000007890B9314800883C2806DB00202F4971
:1040B000088001202C49087054E02C480088401CDE
:1040C0002A490880FFF704FE4CE0274800780128C1
:1040D00019D126480088782806DB0220224908707A
:1040E0000020224908803DE020480088401C1F49EC
:1040F0000880B9EE080A1E4880ED130AB1EE080ADE
:1041000080ED340A2EE01848007802282AD117489A
:1041100000880A2808DB01201649C87000201249CF
:104120000870124908801DE010480088401C0F49A3
:104130000880B9EE080A0E4880ED130AB1EE080AAD
:1041400080ED340AB8EE080A80ED080AB0EE080ADD
:1041500080ED290ABAEE040A80ED1E0AB2EE040AC6
:1041600080ED3F0A00BD0000300100203201002038
:10417000CC1100200014002010B526480079012839
:1041800003D02448C078012801D1FFF7B7FB03F022
:10419000A9FF2048007901280AD11F4BB3F9042058
:1041A000B3F90210B3F900000023FDF735FC30E04D
:1041B0001848C078012811D11748B0F906300022FC
:1041C00011461046FDF728FC134AB2F90A10B2F95D
:1041D000080000231A46FDF77FFC1AE00D4800791D
:1041E000B8B90C48C078A0B90B4CB4F90630B4F992
:1041F0000420B4F90210B4F90000FDF70DFCB4F985
:104200000E30B4F90C20B4F90A10B4F90800FDF727
:1042100063FC10BDB40600206813002010B50246F0
:1042200092F82030012B01D0022B06D11068406992
:10423000084314686061002010BD506A40F480207B
:1042400050620120F8E7F0B504460D461E4694F88A
:10425000207020688368A86800B900E000BF012FC3
:1042600001D0022F7CD103F0806030B903F00060F0
:1042700018B903F08050002873D0C3F301610229FC
:1042800005D9606A40F4000060620120F0BD0120A1
:1042900088403060A86860B9B5F800C0E86840EAB6
:1042A0004C5C206800F5C07000EB0110C0F800C045
:1042B0000FE0D5E901C040EACC00D5F80CC040EAD7
:1042C0000C00D4F800C00CF5C07C0CEB011CCCF841
:1042D0000000D5F810C0206800F5C07000EB011098
:1042E000C0F804C0287D01280ED1206800F5C070F8
:1042F00000EB0110406840F4807C206800F5C0703D
:1043000000EB0110C0F804C0D079000692F806C096
:1043100040EA0C4092F805C040EA0C2C10794CEAB7
:10432000000C206800F5C07000EB0110C0F80CC054
:10433000D078000692F802C040EA0C4092F801C022
:1043400040EA0C2092F800C040EA0C00D4F800C00B
:104350000CF5C07C0CEB011CCCF80800206801E0D7
:1043600016E00FE000F5C07000EB0110006840F0AF
:10437000010C206800F5C07000EB0110C0F800C00F
:10438000002083E7606A40F40010606201207DE74E
:10439000606A40F480206062012077E7F0B504464F
:1043A0000A46216894F82050012D01D0022D7ED1BB
:1043B000424901F50071086840F001000860086892
:1043C00020F47C5008600868566A40EA06200860BD
:1043D000107D00F01F06012000FA06F3C86998431B
:1043E000C861A1F50071D069C8B9D1F80C02984331
:1043F000C1F80C02908880B2968940EA064601F521
:104400001070576940F83760108880B2168940EA0A
:10441000064601F51070576900EBC7004660D06989
:10442000012819D1D1F80C021843C1F80C02908868
:1044300080B2168840EA064601F51070576940F8C8
:104440003760908980B2168940EA064601F51070FF
:10445000576900EBC7004660906928B9D1F804029B
:104460009843C1F8040204E0D1F804021843C1F8EB
:104470000402106928B9D1F814029843C1F8140253
:1044800004E0D1F814021843C1F81402106A01289C
:1044900004D1D1F81C021843C1F81C02D1F8000263
:1044A00020F00100C1F800020020F0BDFFE7606AC3
:1044B00040F4802060620120F7E7000000640040C3
:1044C000704770B5044694F82050012D01D0022D9C
:1044D0007DD151B92068C06800F0030080B9606ADE
:1044E00040F400106062012070BD2068006900F097
:1044F000030028B9606A40F4001060620120F3E70D
:10450000206800F5D87000EB0110006800F004008E
:104510009060906840B9206800F5D87000EB0110F9
:104520000068400D106007E0206800F5D87000EBCF
:1045300001100068C0085060206800F5D87000EBDA
:104540000110006800F00200D060206800F5D8700B
:1045500000EB0110406800F00F001061206800F5CA
:10456000D87000EB0110406800F47F40000A9061B1
:10457000206800F5D87000EB01104068000C506115
:10458000206800F5D87000EB011080681870206872
:1045900000F5D87000EB0110806800F47F40000A3D
:1045A0005870206800F5D87000EB0110806800F4A6
:1045B0007F00000C9870206800F5D87000EB0110A7
:1045C0008068000ED870206800F5D87000E02FE0F9
:1045D00000EB0110C0681871206800F5D87000EB7E
:1045E0000110C06800F47F40000A5871206800F58F
:1045F000D87000EB0110C06800F47F00000C9871C7
:10460000206800F5D87000EB0110C068000ED8716A
:1046100031B92068C06840F020002668F06005E0ED
:104620002068006940F020002668306100205BE7C8
:10463000606A40F480206062012055E72DE9F05F58
:1046400004460025206846692068D0F80490206858
:1046500087682068D0F80CA02068D0F810B02068D7
:10466000D0F8188006F00100002855D007F00100AE
:10467000C0B101202168886007F0020018B120460F
:1046800000F0A5FB0EE007F0040010B145F4006552
:1046900008E007F0080010B145F4805502E020461C
:1046A00000F094FB07F48070C8B14FF4807021686B
:1046B000886007F4007018B1204600F08AFB0EE015
:1046C00007F4806010B145F4005508E007F400607D
:1046D00010B145F4804502E0204600F079FB07F474
:1046E0008030C8B14FF480302168886007F4003012
:1046F00018B1204600F06FFB0EE007F4802010B1E7
:1047000045F4004508E007F4002010B145F4803579
:1047100002E0204600F05EFB06F0080038B10AF027
:10472000100020B145F4007510202168C86006F023
:10473000040040B10AF0080028B108202168C860D0
:10474000204600F00FFA06F0020038B12068C06879
:1047500000F0030010B1204600F006FA06F0400019
:1047600038B10BF0100020B145F4806510202168AD
:10477000086106F0200040B10BF0080028B10820C5
:1047800021680861204600F07BFA06F0100038B17D
:104790002068006900F0030010B1204600F072FAB2
:1047A00006F4003040B109F0100028B11020216853
:1047B0004860204600F0DAFA06F4803040B109F093
:1047C000080028B1082021684860204600F004FB5A
:1047D00006F4004088B309F0040078B306F4807052
:1047E00020B108F0010008B145F0010506F40070A1
:1047F00020B108F0020008B145F0020506F480601F
:1048000020B108F0040008B145F0040506F400608A
:10481000A0B108F0700088B108F07000402817D0EF
:1048200006DC10280BD020280CD0302819D10CE041
:10483000502810D0602814D110E01DE019E045F098
:1048400008050FE045F010050CE045F0200509E0F3
:1048500045F0400506E045F0800503E045F480752D
:1048600000E000BF00BF2068806920F07000216870
:1048700088610420216848602DB1606A2843606225
:104880002046FFF71DFEBDE8F09F70B504460CB949
:10489000012070BD94F8200010B9204600F0B0F857
:1048A0002068006840F001002168086000F0F4FD15
:1048B00005460DE000F0F0FD401B0A2808D9606AAB
:1048C00040F400306062052084F820000120E0E719
:1048D0002068406800F001000028EBD020680068E4
:1048E00020F002002168086000F0D6FD05460DE0CA
:1048F00000F0D2FD401B0A2808D9606A40F400305D
:104900006062052084F820000120C2E7206840682A
:1049100000F002000028EBD1207E012806D120689B
:10492000006840F080002168086005E020680068A9
:1049300020F0800021680860607E012806D1206890
:10494000006840F040002168086005E020680068C9
:1049500020F0400021680860A07E012806D1206870
:10496000006840F020002168086005E020680068C9
:1049700020F0200021680860E07E012806D1206830
:10498000006820F010002168086005E020680068D9
:1049900040F0100021680860207F012806D12068BF
:1049A000006840F008002168086005E020680068A1
:1049B00020F0080021680860607F012806D1206887
:1049C000006840F004002168086005E02068006885
:1049D00020F0040021680860D4E90201084321693D
:1049E0000843616908436168491E08432168C8613A
:1049F00000206062012084F82000002049E70000C8
:104A000010B586B00446142101A8FBF725FC4F49D8
:104A10002068884242D14E480068401C4C490860DA
:104A20000846006801280FD100BF002000904948C7
:104A3000006840F00070474908600846006800F0D0
:104A40000070009000BF00BF00BF002000904148F0
:104A50001038006840F001003E49103908600846EF
:104A6000006800F00100009000BF00BF4FF4C0508C
:104A7000019002200290002003900320049009205E
:104A8000059001A9344800F007FC002211461420CB
:104A900000F08CFD142000F079FD55E02F492068CE
:104AA000884251D100BF002000902A48006840F0A1
:104AB0008060284908600846006800F08060009027
:104AC00000BF00BF22480068401C2149086008461A
:104AD000006801280FD100BF002000901D48006829
:104AE00040F000701B4908600846006800F0007044
:104AF000009000BF00BF00BF002000901548103894
:104B0000006840F002001349103908600846006848
:104B100000F00200009000BF00BF4FF44050019031
:104B200002200290002003900320049009200590A9
:104B300001A90B4800F0B0FB00221146412000F013
:104B400035FD412000F022FD06B010BD006400409C
:104B50000000002040380240000002400068004091
:104B6000000402407047000010B58AB0044601AB53
:104B700003AA00213E48FFF7A4FC0398B0F5017F8B
:104B800017D009DCB12862D0A0F2012070B1012851
:104B90000DD0022864D10BE0A0F2052050B101280D
:104BA00009D0022808D003285AD106E000BF00BF70
:104BB00000BF00BF00BF00BF00BF0398401E2D49CB
:104BC00008700846007800EB400101EBC0002A495C
:104BD00001EB80008069322821DA2649097801EB4F
:104BE000410202EBC101244A02EB810001A9FEF758
:104BF0006DFE2048007800EB400101EBC0001E492B
:104C000001EB80008069401C1A49097801EB4102E0
:104C100002EBC101184A02EB810188610BE01549E2
:104C2000097801EB410202EBC101134A02EB81005A
:104C300001A9FEF721FE0F49097801EB410202EBC1
:104C4000C1010D4A02EB810005F03EFD09E09DF82F
:104C500005009DF8041040EA01200849088000E0A2
:104C600000BF00BF02210248FFF7D8FA0AB010BD0A
:104C7000D0020020AE0000206C100020A800002010
:104C80007047000010B58AB0044601AB03AA0121A9
:104C90003348FFF716FC0398A0F20120082856D2EB
:104CA000DFE800F00405060708090A0B00BF00BF93
:104CB00000BF00BF00BF00BF00BF0398401E2949CE
:104CC00008700846007800EB400101EBC00026495F
:104CD00001EB80008069322821DA2249097801EB52
:104CE000410202EBC101204A02EB810001A9FEF75B
:104CF000EDFD1C48007800EB400101EBC0001A49B3
:104D000001EB80008069401C1649097801EB4102E3
:104D100002EBC101144A02EB810188610BE01149E9
:104D2000097801EB410202EBC1010F4A02EB81005D
:104D300001A9FEF7A1FD0B49097801EB410202EB45
:104D4000C101094A02EB810005F0BEFC00E000BF92
:104D500000BF10210248FFF761FA0AB010BD000041
:104D6000F8020020AF000020CC110020704770B581
:104D7000044694F82000012822D1022084F8200063
:104D80002068006820F001002168086000F084FBC2
:104D900005460DE000F080FB401B0A2808D9606A38
:104DA00040F400306062052084F82000012070BDCE
:104DB0002068406800F001000028EBD16062F6E74F
:104DC000606A40F4002060620120F0E7704770479D
:104DD0007047704770477047704770B50446A56DBF
:104DE00000F05AFB064694F83500022808D08020CF
:104DF000606500BF002084F8340000BF012070BD52
:104E00002068006820F0160021680860206840696A
:104E100020F0800021684861206C08B9A06C28B19E
:104E20002068006820F00800216808602068006899
:104E300020F001002168086010E000F02DFB801BCD
:104E400005280BD920206065032084F8350000BFB9
:104E5000002084F8340000BF0320D0E720680068F9
:104E600000F001000028E8D194F85C103F20884051
:104E7000A860012084F8350000BF002084F83400C9
:104E800000BF00BFBBE7014691F83500022803D000
:104E90008020486501207047052081F835000868AA
:104EA000006820F001000A6810600020F3E70000AD
:104EB000F8B50446002000908C4800684FF4165165
:104EC000B0FBF1F7A56D2E6894F85C1008208840BF
:104ED000304098B12068006800F0040070B120688C
:104EE000006820F004002168086094F85C10082035
:104EF0008840A860606D40F00100606594F85C1027
:104F000001208840304068B12068406900F080008E
:104F100040B194F85C1001208840A860606D40F0BA
:104F20000200606594F85C1004208840304068B14D
:104F30002068006800F0020040B194F85C10042082
:104F40008840A860606D40F00400606594F85C10D3
:104F500010208840304078B32068006800F00800D6
:104F600050B394F85C1010208840A8602068006856
:104F700000F4802080B12068006800F4002028B987
:104F8000206CC8B12046216C884715E0A06C98B110
:104F90002046A16C88470FE02068006800F480700C
:104FA00028B92068006820F0080021680860206C9B
:104FB00010B12046216C884794F85C10202088406E
:104FC0003040002865D02068006800F010000028FC
:104FD0005FD094F85C1020208840A86094F83500D9
:104FE000052828D12068006820F016002168086094
:104FF0002068406920F0800021684861206C08B971
:10500000A06C28B12068006820F0080021680860C2
:1050100094F85C103F208840A860012084F8350097
:1050200000BF002084F8340000BF206D10B120467E
:10503000216D8847F8BD2068006800F4802080B1A9
:105040002068006800F4002028B9606C10B1204688
:10505000616C88471DE0E06BD8B12046E16B884762
:1050600017E02068006800F4807068B92068006864
:1050700020F0100021680860012084F8350000BF8E
:10508000002084F8340000BFE06B10B12046E16BD3
:105090008847606D38B3606D00F00100F0B1052005
:1050A00084F835002068006820F00100216808605D
:1050B00000BF0098401C0090B84200D905E020686D
:1050C000006800F001000028F3D100BF012084F83F
:1050D000350000BF002084F8340000BFE06C10B140
:1050E0002046E16C884700BFA4E70000380000209C
:1050F0002DE9F0410446002500F0CEF9074614B929
:105100000120BDE8F081606A00B100BF022084F890
:10511000350000BF002084F8340000BF206800681C
:1051200020F00100216808600AE000F0B5F9C01B1A
:10513000052805D920206065032084F83500E0E7C4
:105140002068006800F001000028EED120680568A2
:1051500021480540D4E901010843E1680843216979
:10516000084361690843A1690843E1690843216A6A
:1051700008430543606A042803D1D4E90B010843BE
:105180000543206805602068456925F00705606AC9
:105190000543606A04280DD1A06A0543E06A48B15E
:1051A0002046FDF721FC28B140206065012084F8ED
:1051B0003500A6E7206845612046FDF7FBFB064663
:1051C00094F85C103F208840B060002060650120AA
:1051D00084F83500002094E73F8010F02DE9F04777
:1051E00004460D4616461F464FF00008D4F8589066
:1051F00000BF94F83400012802D10220BDE8F087F6
:10520000012084F8340000BF94F83500012825D12E
:10521000022084F83500002060653B46324629466E
:105220002046FDF736FC94F85C103F208840C9F812
:1052300008002068006840F0160021680860206CB3
:1052400028B12068006840F00800216808602068E4
:10525000006840F001002168086006E000BF0020FF
:1052600084F8340000BF4FF002084046C6E7000053
:1052700070B5044600F010F906462546681C10B1CA
:1052800004480078054400BF00F006F9801BA842DE
:10529000FAD370BD34000020F8B502460B46002555
:1052A000002400200021D6E0012606FA01F51E6840
:1052B00006EA0504AC4274D11E7906F00306012EFD
:1052C00004D01E7906F00306022E13D190684F0019
:1052D0000326BE40B0434F00DE68BE4030439060BE
:1052E000506801268E40B0431E79C6F300168E40EA
:1052F000304350601E7906F00306032E09D0D068B3
:105300004F000326BE40B0434F009E68BE4030436E
:10531000D0601E7906F00306022E13D1CF0802F1E9
:10532000200656F827004E07F70E0F26BE40B04362
:105330004F07FF0E1E69BE403043CF0802F1200622
:1053400046F8270010684F000326BE40B0431E7980
:1053500006F003064F00BE40304310605E6806F45E
:105360004036002E76D000BF002600963C4E3668B0
:1053700046F480463A4F3E603E46366806F4804624
:10538000009600BF00BF374E8F0856F827008E07E3
:10539000370F0F26BE40B043334EB24202D1002633
:1053A00024E057E0314EB24201D101261EE0304EDA
:1053B000B24201D1022619E02E4EB24201D103269B
:1053C00014E02D4EB24201D104260FE02B4EB24222
:1053D00001D105260AE02A4EB24201D1062605E097
:1053E000284EB24201D1072600E008268F073F0F62
:1053F000BE4030431B4E8F0846F82700224E3068CF
:10540000A0435E6806F4801606B120431E4E30604D
:10541000361D3068A0435E6806F4001606B12043CE
:10542000194E361D3060184E361F3068A0435E6836
:1054300006F4003606B12043134E361F3060361F87
:105440003068A0435E6806F4803606B120430E4EF5
:10545000083E3060491C1029FFF426AFF8BD00005B
:105460004438024008380140000002400004024075
:1054700000080240000C02400010024000140240EC
:1054800000180240001C0240083C01400AB1816142
:1054900001E00B0483617047014800687047000019
:1054A0002C0000200348006803490978084401499A
:1054B000086070472C0000203400002010B50D4813
:1054C000006840F400700B4908600846006840F42A
:1054D000806008600846006840F48070086003201F
:1054E00000F0A2F80F2000F007F800F02BF80020E1
:1054F00010BD0000003C024070B504460E48007824
:105500004FF47A71B1FBF0F00C490968B1FBF0F58A
:10551000284601F089F808B1012070BD102C07D28F
:1055200000222146501E00F041F80548046001E0C9
:105530000120F2E70020F0E73400002038000020CE
:105540003000002008B500BF002000900E48006821
:1055500040F480400C4908600846006800F4804030
:10556000009000BF00BF00BF00200090081F00682F
:1055700040F08050091F08600846006800F0805025
:10558000009000BF00BF08BD4438024001460846F5
:10559000002809DB00F01F0301229A4043099B0009
:1055A00003F1E023C3F8002100BF70472DE9F05F4D
:1055B00080460D461646002704F024F90746394672
:1055C0002A46334601F00700C0F1070ABAF1040F7A
:1055D00002D94FF0040A01E0C0F1070AD14600F1F8
:1055E000040ABAF1070F02D24FF0000A01E0A0F15D
:1055F000030AD4464FF0010A0AFA09FAAAF1010A8D
:105600000AEA020A0AFA0CFA4FF0010B0BFA0CFB39
:10561000ABF1010B0BEA030B4AEA0B0421464046AF
:1056200004F0F8F8BDE8F09F00BF00F00702064B59
:1056300019684FF6FF031940044B0B4343EA02215C
:10564000014B196000BF70470CED00E00000FA0547
:1056500070B504460D460CB9012070BD584800686D
:1056600000F00700A84209D255490D7008460068AD
:1056700000F00700A84201D00120EEE7207800F0FA
:10568000020002281DD1207800F00400042805D172
:105690004C48006840F4E0504A490860207800F027
:1056A0000800082805D14748006840F46040454993
:1056B00008604448006820F0F000A16808434149B0
:1056C0000860207800F00100A8B36068012807D1C5
:1056D0003C4808380068C0F34040B8B90120BCE736
:1056E0006068022802D06068032807D1354808386E
:1056F0000068C0F3406048B90120AEE7314808387F
:105700000068C0F3400008B90120A6E72D480068F2
:1057100020F00300616808432A490860FFF7BCFED7
:10572000064609E0FFF7B8FE801B41F28831884247
:1057300002D9032091E707E02248006800F00C003E
:105740006168B0EB810FEDD11D48006800F00700E3
:10575000A84209D91A490D700846006800F00700F0
:10576000A84201D0012078E7207800F00400042846
:1057700007D11448006820F4E050E168084311495B
:105780000860207800F00800082808D10D4800685B
:1057900020F46040216940EAC1000A49086000F035
:1057A0003FF808490968C1F30311074A515CC84032
:1057B0000649086006480068FFF79EFE00204CE797
:1057C000003C02400838024004AA000838000020CB
:1057D00030000020014800687047000038000020B9
:1057E00000B5FFF7F7FF04490968C1F38221034AB6
:1057F000515CC84000BD00000838024014AA0008EF
:1058000000B5FFF7E7FF04490968C1F34231034AD5
:10581000515CC84000BD00000838024014AA0008CE
:105820002DE9F047002400250026A1462548006800
:1058300000F00C0020B1042805D008283AD105E07A
:10584000DFF8849039E0DFF8849036E01D48001FCF
:10585000006800F03F041B48001F006800F480004F
:1058600078B11A481749091F0968C1F38811A0FBCC
:1058700001700146224600233846FAF7A3FC05468C
:105880000EE011480F49091F0968C1F38811A0FBF8
:1058900001700146224600233846FAF793FC05467C
:1058A0000848001F0068C0F30140401C4600B5FBDB
:1058B000F6F902E0DFF8109000BF00BF4846BDE8EF
:1058C000F0870000083802400024F40000127A003B
:1058D000F8B504460CB90120F8BD207800F00100AD
:1058E000002874D0F948006800F00C0004280DD09E
:1058F000F648006800F00C00082813D1F348001F98
:10590000006800F48000B0F5800F0BD1EF48083834
:105910000068C0F34040002859D06068002856D184
:105920000120D9E700BF6068B0F5803F08D1E748A3
:105930000838006840F48030E449083908601EE007
:105940006068B0F5A02F0DD1E0480838006840F439
:105950008020DE49083908600846006840F480303D
:1059600008600CE0D9480838006820F48030D74936
:10597000083908600846006820F48020086000BFED
:10598000606890B1FFF788FD054606E0FFF784FDEB
:10599000401B642801D903209EE7CC4808380068E2
:1059A000C0F340400028F1D011E0FFF775FD054637
:1059B00006E0FFF771FD401B642801D903208BE747
:1059C000C24808380068C0F340400028F1D1207870
:1059D00000F0020002285FD1BC48006800F00C0013
:1059E00058B1BA48006800F00C0008281CD1B7482C
:1059F000001F006800F48000B0B9B448083800689F
:105A0000C0F3400020B1E068012801D0012063E725
:105A1000AE480838006820F0F800216940EAC1006B
:105A2000AA490839086037E0E06800B30120A849B6
:105A30000860FFF731FD054606E0FFF72DFD401B2E
:105A4000022801D9032047E7A04808380068C0F3BE
:105A500040000028F1D09D480838006820F0F80088
:105A6000216940EAC10099490839086014E0002022
:105A700097490860FFF710FD054606E0FFF70CFDAB
:105A8000401B022801D9032026E790480838006807
:105A9000C0F340000028F1D1207800F00800082869
:105AA0002CD16069A8B101208A490860FFF7F4FC95
:105AB000054606E0FFF7F0FC401B022801D9032051
:105AC0000AE782486C300068C0F340000028F1D03B
:105AD00014E000207F490860FFF7DEFC054606E081
